:020000040800F2
:10000000580700209D0100082D2A0008F32400084D
:1000100085290008490A0008313100080000000065
:10002000000000000000000000000000E32A0008BB
:10003000110C000800000000E12A0008E52A000871
:10004000B7010008B7010008B7010008B7010008B0
:10005000B7010008B7010008B7010008B7010008A0
:10006000B7010008B7010008B7010008B701000890
:10007000B7010008B7010008B7010008B701000880
:10008000B7010008B7010008B7010008B701000870
:10009000B7010008B7010008B7010008B701000860
:1000A000B7010008B7010008B7010008B701000850
:1000B000B7010008B7010008B7010008B701000840
:1000C000B7010008B7010008B7010008B701000830
:1000D000B701000825310008B7010008B701000882
:1000E000B7010008B7010008B7010008B701000810
:1000F000B7010008B7010008B7010008B701000800
:10010000B7010008B7010008B7010008B7010008EF
:10011000B7010008B7010008B7010008B7010008DF
:10012000610B0008B7010008B7010008B70100081B
:10013000B7010008B7010008B7010008B7010008BF
:10014000B7010008B7010008B7010008B7010008AF
:10015000B7010008B7010008B7010008B70100089F
:10016000B7010008B7010008B7010008B70100088F
:10017000B7010008B7010008B7010008000000003F
:10018000B7010008B7010008DFF80CD000F06EFBE3
:1001900000480047E1420008580700200648804711
:1001A00006480047FEE7FEE7FEE7FEE7FEE7FEE75C
:1001B000FEE7FEE7FEE7FEE76D2B00088901000879
:1001C0002DE9F05F0546002092469B46884606468C
:1001D000814640241BE0284641464746224600F01F
:1001E000C4F953465A46C01A914110D311461846D5
:1001F000224600F0ABF92D1A67EB01084F46224664
:100200000120002100F0A2F917EB00094E41201E49
:10021000A4F10104DFDC484631462A464346BDE8E6
:10022000F09FD2B201E000F8012B491EFBD27047CB
:100230000022F6E710B513460A4604461946FFF7B2
:10024000F0FF204610BD2DE9FE4F804681EA0300F5
:10025000C00F0C46009021F0004123F00045B8EBA0
:100260000200A94105D24046214690461C460B4655
:10027000024623F00040104347D0270DC7F30A0081
:10028000C3F30A510290401A019040286BDAC3F37D
:10029000130040F4801B0098924620B10023D2EB5B
:1002A000030A63EB0B0B01985946C0F1400250461C
:1002B00000F04CF906460D4650465946019A00F0AA
:1002C00064F910EB08006141002487EA115284EAC6
:1002D000E7731A4340D0009A62B3019A012A4FEAA9
:1002E000075215DC001B61EB02014FF0004202EAED
:1002F0000752CDE90042001C41F5801132462B46E1
:1003000000F09BF903B0BDE8F08F40462146F9E7C5
:10031000001B61EB0201001C41F5801300185B41DA
:100320002018A2F5001747EB030140EAD570B61973
:100330006D4111E06D084FEA360645EAC0754FEA97
:100340000752001B61EB0201001C41F580114908B6
:100350004FEA30000019514132462B4603B0BDE848
:10036000F04F00F05BB90098012240000023D0EB71
:10037000020263EBE073009821464FEAE074B8EBA9
:10038000000061EB0401E9E783F000435BE781F0E3
:10039000004158E72DE9FE4F81EA030404F00044D0
:1003A00021F0004100944FF0000B23F0004350EA8D
:1003B00001045ED052EA03045BD0C3F30A54C1F3D4
:1003C0000A552C44A4F2F3340194A0FB0254C1F367
:1003D000130141F48011C3F3130343F4801301FBB1
:1003E000024400FB034E840A970A44EA815447EA18
:1003F0008357A4FB076802958D0A05FB07854FEA22
:10040000932C04FB0C542705029D4FEA065847EA3B
:100410001637B5EB08056EEB070C870E920E47EA10
:10042000811742EA8312A7FB0201B6EB0B0164EBD2
:1004300000042B0D43EA0C335E1844EB1C50DA46E3
:100440005146E7FB0201C5F313044FEA0B3343EABD
:1004500014534FEA0432019C43EA0603A4F10C044E
:100460000294009CCDE900B400F0E7F803B0BDE8C9
:10047000F08F00200146F9E70EB540F233410291BA
:100480000021CDE900110A460B4600F0D6F803B072
:1004900000BD00F0004230F000400AD0C10D01F56F
:1004A0006071C0F3160042EA0151C20840071143CF
:1004B000704700200146704730B5041E71F10004FA
:1004C00004DB4FF00044404264EB0101141E73F161
:1004D000000405DB1C464FF00043524263EB04036B
:1004E000994208BF904230BD01F0004330B421F082
:1004F000004150EA010206D00A0DA2F56072C1F374
:100500001301002A02DC30BC00207047440F44EA8B
:10051000C104C100E01830BC00EBC25000F047B885
:1005200030B50B46014600202022012409E021FAC3
:1005300002F59D4205D303FA02F5491B04FA02F5C0
:100540002844151EA2F10102F1DC30BD202A04DB93
:10055000203A00FA02F1002070479140C2F12003D6
:1005600020FA03F3194390407047202A04DB203A15
:1005700021FA02F00021704721FA02F3D040C2F1C3
:1005800020029140084319467047202A06DBCB170A
:10059000203A41FA02F043EAE07306E041FA02F33E
:1005A000D040C2F12002914008431946704700290B
:1005B000A8BF7047401C490008BF20F001007047E9
:1005C00010B4B0FA80FC00FA0CF050EA010404BF49
:1005D00010BC704749B1CCF1200421FA04F411FA9F
:1005E0000CF118BF012121430843A3EB0C01CB1DE3
:1005F0004FEA00614FEA102042BF002010BC704754
:1006000000EBC35010440029A4BF10BC7047401C2D
:10061000490008BF20F0010010BC704710B5141E3F
:1006200073F1000408DA401C41F1000192185B41AB
:100630001A4301D120F0010010BD2DE9F04D924682
:100640009B4611B1B1FA81F202E0B0FA80F2203299
:100650009046FFF77BFF04460F4640EA0A0041EA56
:100660000B0153465A46084313D0114653EA010082
:1006700019D0C8F140025046FFF777FF05460E46F5
:10068000504659464246FFF761FF084305D0012016
:1006900004E020463946BDE8F08D0020054346EAD7
:1006A000E0762C4337430A986305E40AA0EB080080
:1006B0000022FD0A44EA47540A3002D500200146D0
:1006C000E9E7010510196941DDE9084500196941AB
:1006D000BDE8F04DA2E72DE9F04D81EA030404F0F6
:1006E000004B21F0004514464FF0000A23F0004172
:1006F00050EA050220D054EA01021DD0C5F30A5782
:100700000246C5F31303C1F31300C1F30A5640F4C4
:10071000801543F48013A7EB0608101BD64608F299
:10072000FD3873EB050002D308F1010801E09218CF
:100730005B41B8F1000F03DA00200146BDE8F08DFF
:1007400000204FF48011064684460EE0171B73EB21
:10075000050705D3121B63EB050306434CEA010CA6
:1007600049084FEA300092185B4150EA0107EDD189
:1007700052EA030012D082EA040083EA050108432A
:1007800005D0101BAB4106D20122002306E0002257
:100790004FF0004302E06FF0010253101AEB060025
:1007A0004CEB085110EB0A0041EB0B01BDE8F04D9A
:1007B000FFF734BF2DE9FE4FC3F30A5701F00045A0
:1007C0000024C1F30A56C3F31303C1F3130143F426
:1007D000801312EB020AA64641F48011009543EB08
:1007E000030CA7F1010B16E0B0EB0A0061EB0C0162
:1007F000071E71F1000707DA4FF00008D0EB080080
:1008000085F0004568EB0101171A73EB0107EBD384
:10081000761E001849415E45F6DA50EA010209D019
:10082000CDE900E5002213460296FFF706FF03B06C
:10083000BDE8F08F20460099F9E7C1F30A52C1F3F1
:10084000130140F2FF3341F480119A4202DA002092
:100850000146704740F233439A42A2F2334202DC2F
:100860005242FFF782BEFFF771BE0000064C074DF3
:1008700006E0E06840F0010394E807009847103470
:10088000AC42F6D3FFF784FC20500008405000082B
:1008900010B50146806B026C12F0500F05D0026C4F
:1008A000D20626D500F0A3FA10BD016C41F4007108
:1008B000016401688A6812F0405F17D1027EAAB90C
:1008C000CA6A12F4700F02D08A6852050ED44A68C0
:1008D00022F020024A60016C21F480710164016CF5
:1008E000C90403D4016C41F00101016400F038FA3D
:1008F00010BD806BC26CBDE810400846104710B5B3
:10090000806B40210164416C41F00401416400F0BE
:100910006EFA10BD10B5806B00F068FA10BD0000D3
:10092000464910B54A6822F440324A604A68436832
:100930001A434A6001684A6822F480724A6001687A
:100940004A68036942EA03224A6001684A6822F061
:1009500040724A6001684A6883681A434A600168C5
:100960008A6822F400628A6001688A68C3681A4350
:100970008A60816A6FF07062D14201688A6822F0F1
:1009800070628A6001688A680CD0836A1A438A6040
:1009900001688A6822F040528A6001688A68C36AE6
:1009A0001A4301E022F040528A6001688A6822F00E
:1009B00002028A6001688A68037E42EA43028A6012
:1009C00090F82010002901684A680FD042F40062B4
:1009D0004A6001684A6822F460424A6001684A68D5
:1009E000174C436A04EB43331A4301E022F40062DC
:1009F0004A600168CA6A22F47002CA620168CA6A5F
:100A0000838B104C04EB03531A43CA6201688A6853
:100A100022F400728A6001688A6890F8303042EAF5
:100A200043228A6001688A6822F480628A600168D1
:100A30008A68406942EA8020886010BD0023014036
:100A400000E0FFFF0000F0FFFEE700002DE9F043AB
:100A5000324C9FED310A324E324FDFF8CC80002508
:100A60002DED028B85B084ED060A84ED070A84ED36
:100A7000080A4FF4FA7900BF94ED060AD6ED000A91
:100A8000012030EE200A84ED060A94ED070AD7ED26
:100A9000000A30EE200A84ED070A94ED080AD8ED2A
:100AA000000A30EE200A84ED080A03F097FC6D1C62
:100AB0004D45E1DBD4ED060A9FED1C0AC0EE808AAD
:100AC000C4ED068AD4ED070A80EE808A84ED078A99
:100AD00094ED081AC1EE000AC4ED080A10EE900A5F
:100AE000FFF7D7FC06460F4618EE100AFFF7D1FCB9
:100AF00004460D4618EE900AFFF7CBFC8DE8F00097
:100B000041EC100B0AA053EC102B02F013FB05B0C4
:100B1000BDEC028BBDE8F0830000000068000020FF
:100B2000280000202C000020300000200000FA43A4
:100B30006F66667365745F69613A252E34662C6F43
:100B400066667365745F69623A252E34662C6F663B
:100B5000667365745F69633A252E34662E0D0A004C
:100B6000014800F04FBB0000F0000020016818238E
:100B7000CAB2103AB2FBF3F2054B6FF30901032A34
:100B80009B5CC36500D9091D81650846704700005C
:100B90005C47000810B5014600208B698A6A4FF057
:100BA000C07453B1B3F5005F15D072B1012A0CD0F7
:100BB000022A0AD0032A09D104E01AB1012A06D078
:100BC000022A03D1C96AC90100D5012010BDC96A32
:100BD000A142FAD010BD002AF7D0012AF2D0022A91
:100BE000F3D0032AF3D010BD30B50468256825F48E
:100BF00080252560046863608368402B036803D008
:100C000099600068C26030BD9A600068C16030BD04
:100C10007047704778B50024009490F83C20012A72
:100C200019D0012280F83C200A6807230568092AA8
:100C300013D9EE680A3A02EB420293409E43EE60FB
:100C40000B788A680A3B03EB43039A400368DD682C
:100C50002A43DA6010E0022078BD2E6902EB4202DE
:100C600093409E432E610B788A6803EB43039A40BE
:100C700003681D692A431A614A681F23072A13D291
:100C800005686E6B521E02EB820293409E436E63B8
:100C90000B790A885B1E92B203EB83039A400368C8
:100CA0005D6B2A435A6327E005680D2A12D22E6B2A
:100CB000D21F02EB820293409E432E630B790A8877
:100CC000DB1F92B203EB83039A4003681D6B2A4338
:100CD0001A6311E0EE6A0D3A02EB820293409E43E2
:100CE000EE620B790A880D3B92B203EB83039A40C4
:100CF0000368DD6A2A43DA62164B0568144A9D428E
:100D000006D10D68122D03D1556845F48005556054
:100D100005689D4218D10B68102B01D0112B13D1FF
:100D2000536843F400035360096810290CD10A4941
:100D30000A4A0968B1FBF2F101EB8101490000E0C8
:100D4000491E00910029FBD180F83C40002078BD6D
:100D500000230140002001404000002040420F00DD
:100D600070B5044600F0C8F91C481D4B002102680C
:100D700033F91150891C2A440A29F9D300EE102AAC
:100D8000F1EE041A9FED181AF8EE400A0025012230
:100D900080EEA10ADFED130A20EE200A20EE010A00
:100DA00080ED020A0560416833F91260921C3144FB
:100DB0000A2AF9D300EE101A0A220949B8EE402A8D
:100DC00082EE210A20EE200A20EE010A80ED030ABD
:100DD00045602046BDE8704000F0F6B820000020D5
:100DE000940000200000803933335340704770472F
:100DF00070B504004FF0000503D0206C002610B140
:100E000007E0012070BD204600F01CF8666484F8FD
:100E10003C60206CC00610D4206C20F4885040F058
:100E2000020020642046FFF77BFD6664206C20F002
:100E3000020040F00100206400E0012584F83C60DD
:100E4000284670BD70B586B0064614216846FFF787
:100E5000EFF91D493068884234D11C4800250168EB
:100E600041F480710160006800F4807005901748BB
:100E70001438016841F0010101600068694600F022
:100E800001000590182000900320CDE901051048CD
:100E900000F02AFB104C0F48C4E900050015A560BE
:100EA000C4E90350400060618000A0614011C4E9C2
:100EB00007052046656200F075FA08B1FFF7A9FE44
:100EC000B463A66306B070BD002001404438024000
:100ED0000000024010640240F000002018B500211C
:100EE000009190F83C20012A07D0012280F83C2094
:100EF00002689368DB0702D011E0022018BD9368F6
:100F000043F0010393602A4A2A4B1268B2FBF3F2C2
:100F100002EB420200E0521E0092002AFBD102685E
:100F20009368DB0741D0036C40F20164A34343F4B0
:100F30008073036453685B0505D5036C23F4005389
:100F400043F480530364036CDB0404D5436C23F047
:100F50000603436400E0416480F83C1016496FF0DA
:100F60002203136049680068CA06144906D0884203
:100F70001BD1816811F0405F13D016E08842F8D091
:100F80000F4A904203D1D1F80423D206F1D00D4A82
:100F900090420AD1D1F8041301F01F011029E8D3BF
:100FA00003E0816841F080418160002018BD0000AD
:100FB0004000002040420F0000230140002001407B
:100FC0000021014000220140F8B50E4600210446F0
:100FD000009190F83C00012807D0012084F83C00E3
:100FE00020688368DB0702D011E00220F8BD836827
:100FF00043F0010383603748374B0068B0FBF3F0E0
:1010000000EB400000E0401E00900028FBD120686B
:101010008368DB075CD0236C40F20165AB4343F48B
:10102000807323644068400505D5206C20F400508F
:1010300040F480502064206CC00404D5606C20F023
:101040000600606400E0616484F83C10A16B2448F1
:10105000224DC863A16B23480864A16B2248C86471
:1010600021686FF0220008602068416841F08061CB
:1010700041602068816841F4807181602168134675
:1010800032464C31A06B00F0F7F968681749C0068A
:10109000206806D088421BD1816811F0405F13D0D0
:1010A00016E08842F8D0124A904203D1D1F80423C6
:1010B000D206F1D00F4A90420AD1D1F8041301F0C0
:1010C0001F011029E8D303E0816841F0804181606D
:1010D0000020F8BD4000002040420F0000230140E6
:1010E0009108000815090008FF08000800200140C9
:1010F000002101400022014010B50446002094F870
:101100003C1001290CD0012184F83C1021688A6828
:1011100022F001028A6021688A68D20702D013E0B7
:10112000022010BD886820F480708860A06B00F0F9
:101130000FF821684A6822F080624A60216C21F42D
:10114000885141F001012164002184F83C1010BD58
:101150002DE9F0410446876D00F0A8FA064694F8A0
:1011600035000025022806D08020606584F83450C0
:101170000120BDE8F0812068016821F016010160BE
:101180002068416921F080014161206C08B9A06CA0
:1011900020B12068016821F0080101602068016821
:1011A00021F0010101600BE000F080FA801B0528AE
:1011B00006D92020606504F8345F03206070D8E70A
:1011C00020680068C007EFD194F85C103F20884089
:1011D000B86004F8345F012060700020C9E790F81F
:1011E0003510022903D08021416501207047052177
:1011F00080F835100068016821F0010101600020CD
:10120000704700002DE9F84304464FF00009CDF87F
:10121000009063484FF41651A56D0068B0FBF1F7DC
:101220002E6894F85C10082000FA01F131420FD0CA
:1012300021680A6852070BD50A6822F004020A6086
:1012400094F85C108840A860606D40F00100606513
:1012500094F85C104FF0010808FA01F0304208D011
:1012600021684969090604D5A860606D40F0020054
:10127000606594F85C1004208840304208D02168F2
:101280000968890704D5A860606D40F004006065B6
:1012900094F85C1010208840304218D0216809680A
:1012A000090714D5A86020680168490304D50068BF
:1012B000000308D5A16C07E00168C90503D40168E3
:1012C00021F008010160216C09B12046884794F89B
:1012D0005C1020208840304231D021680968C9065E
:1012E0002DD5A86094F8350005282068016806D03F
:1012F000490347D5006800031DD4616C1CE021F050
:10130000160101602068416921F080014161206C73
:1013100008B9A06C20B12068016821F008010160C3
:1013200094F85C103F208840A86084F8349084F8DA
:101330003580216D1FE0E16B09B120468847606D63
:1013400000282BD0606DC00714D0052084F835002C
:101350002068016821F0010101600098401C0090A4
:10136000B84203D820680068C007F6D184F83490EA
:1013700084F83580E16C002910D001B02046BDE82A
:10138000F04308470168C905D5D4016821F0100170
:10139000016084F8349084F83580CCE7BDE8F883A8
:1013A000400000202DE9F041044600F07FF9064698
:1013B0005CB1002584F83450022084F835002068A0
:1013C000016821F0010101600DE00120BDE8F0811C
:1013D00000F06CF9801B052805D9202060650320EA
:1013E00084F83500F2E720680068C007F0D1226871
:1013F000116820480140D4E901031843D4E90336B9
:101400003343184363691843A3691843E3691843D6
:10141000236A18430843616A042903D1D4E90B13F2
:1014200019430843106020684069666A20F007018C
:1014300030460E43012704280CD1A06A0643E06A17
:1014400040B12046FFF7A6FB20B14020606584F83C
:101450003570BAE7206846612046FFF787FB94F8AD
:101460005C203F2191408160656584F835700020E3
:10147000ACE700003F8010F02DE9F0410446866D96
:1014800090F83400002501280DD0012084F83400A4
:1014900094F835700020012F07D084F8340002251D
:1014A0002846BDE8F0810220FBE7022784F835706A
:1014B00060652046FFF798FB94F85C103F20884059
:1014C000B0602068016841F016010160206C20B115
:1014D0002068016841F0080101602068016841F05E
:1014E00001010160DCE700002DE9F84F00224FF018
:1014F000010803254FF00F0E0B6808FA02F4234091
:10150000A3426ED14E68012E05D0022E03D0112EBB
:1015100001D0122E12D186684FEA420C05FA0CF760
:10152000BE43CF6807FA0CF7374387604668A64387
:101530000C79C4F30014944034434460C6685700E7
:1015400005FA07FC8C6826EA0C06BC403443C460EC
:101550004C68022C01D0122C13D1D40800EB840467
:10156000A346D4F8209054074FEAD46A0EFA0AF63C
:1015700029EA06090E6906FA0AF646EA0906CBF8D0
:10158000206006680C7926EA0C0604F00304BC40CF
:10159000344304604C68E40065D5364C266846F454
:1015A00080462660246822F0030604F480440094F8
:1015B000314C3444A446D4F808489607370F0EFA45
:1015C00007F6B4432D4EB04201D1002624E02C4E44
:1015D000B04201D101261FE02A4EB04202D10226BC
:1015E0001AE040E0284EB04201D1032614E0274E15
:1015F000B04201D104260FE0254EB04201D10526AC
:101600000AE0244EB04201D1062605E0224EB04247
:1016100001D1072600E00826BE402643CCF8086822
:101620001E4E34684F689C43FF0300D51C43346052
:101630001A4C241D26684F689E43BF0300D51E43E5
:101640002660164E083634684F689C43FF0200D56A
:101650001C433460114E0C3634684F689C43BF0203
:1016600000D51C433460521C102AFFF445AFBDE87E
:10167000F88F000044380240003001400000024072
:101680000004024000080240000C0240001002402A
:101690000014024000180240001C0240003C0140BF
:1016A0000AB1816170470904FBE7000001488068C6
:1016B000704700003400002002488168027811441D
:1016C00081607047340000200B4810B5016841F478
:1016D00000710160016841F480610160016841F4BA
:1016E00080710160032000F06FF8002000F006F820
:1016F00000F024F8002010BD003C024070B50D4DF4
:1017000004464FF47A712878B1FBF0F00A49096871
:10171000B1FBF0F000F002FB48B9102C07D2002218
:101720002146501E00F030F800206C6070BD012092
:1017300070BD000034000020400000200A4808B5B9
:10174000016841F480410160006800F4804000902D
:101750000548001F016841F080510160006800F0F9
:101760008050009008BD000044380240002809DB8A
:1017700000F01F02012191404009800000F1E020AB
:10178000C0F8001170470000F0B40E4B1B680C4607
:10179000C3F30223C3F10705042D00D90425191D45
:1017A000072901D2002300E0DB1E012606FA05F11D
:1017B000491E214099409E40761E16403143F0BCA0
:1017C00001F0E0BC0CED00E0064900F007020868FB
:1017D0004FF6FF03184040EA0220034A1043086016
:1017E000704700000CED00E00000FA052DE9F0471D
:1017F0000E46050065D0DFF81481D8F80000F7B276
:1018000000F00F00B04207D288F80070D8F800004E
:1018100000F00F00B04254D128683D4C810712D52A
:10182000400703D5206840F4E05020602878000786
:1018300003D5206840F4604020602068A96820F04B
:10184000F000084320602878C0072DD03049686830
:101850000839012812D0022813D0032811D00968B2
:10186000890700292DDA216821F003010143216055
:10187000FFF71CFF814641F2883A0EE009688903B0
:10188000EFE709688901ECE7FFF710FFA0EB09011A
:10189000514502D90320BDE8F0872068696800F04F
:1018A0000C00B0EB810FEFD1D8F80010404601F0EA
:1018B0000F01B14207D90770006800F00F00B04275
:1018C00001D00120E7E72878400705D52068E968BE
:1018D00020F4E050084320602878000706D52068EF
:1018E000296920F4604040EAC100206000F038F827
:1018F0002168084AC1F30311515CC84006490860D9
:1019000006480068FFF7FAFE0020C4E7003C0240EA
:1019100008380240644700084000002038000020DA
:101920000448054900680968044AC1F38221515CF2
:10193000C840704740000020083802407447000843
:101940000448054900680968044AC1F34231515C02
:10195000C840704740000020083802407447000823
:10196000154810B5006810F00C02144813D041104F
:10197000042A0FD0082A0ED10F4C241F2268236896
:1019800002F03F025B0207D52068C0F38810A0FB7D
:10199000010106E0084610BD2168C1F38811A1FBD2
:1019A00000010023FEF70CFC2168C1F30141491C32
:1019B0004900B0FBF1F010BD083802400024F400EB
:1019C0002DE9F84F040076D02078DFF838A3CE4D0B
:1019D000C00749D0DAF800105046C1F3810101294F
:1019E00008D00068C0F3810002280AD1281D0068D1
:1019F000400206D52868800336D560680028E2D00A
:101A000032E06068B0F5803F10D0B0F5A02F2868B4
:101A100010D020F480302860286820F480202860CE
:101A20006068A0B1FFF742FE06460CE0286840F46B
:101A30008030F4E740F480202860F7E7FFF736FEB7
:101A4000801B642873D828688003F7D50CE0FFF763
:101A50002DFE064605E000BFFFF728FE801B642828
:101A6000F0D828688003F7D42078DFF8A0828007B8
:101A70004FF000093ED5DAF80010504611F00C0F77
:101A800009D00068C0F3810002280BD19D48001FD7
:101A90000068400206D42868800715D5E068012850
:101AA00009D111E0E068B8B10120C8F80000FFF7E3
:101AB000FDFD064605E020E1FFF7F8FD801B02284A
:101AC000C0D828688007F7D52868216920F0F80079
:101AD00040EAC10028600DE0C8F80090FFF7E6FD7D
:101AE000064604E0FFF7E2FD801B02281FD82868A5
:101AF0008007F7D42078000722D5824E8448616998
:101B00006C3671B101210160FFF7D0FD074604E09A
:101B1000FFF7CCFDC01B022809D830688007F7D535
:101B20000EE0C0F80090FFF7C1FD074605E082E037
:101B3000FFF7BCFDC01B02287DD830688007F7D4B2
:101B40002078400768D5DFF8BCB100270BF1380BCF
:101B5000DBF80000C0000BD4DBF8001041F080512E
:101B6000CBF80010DBF80000012700F08050009057
:101B7000684E3068C00510D4306840F48070306022
:101B8000FFF794FD009005E0FFF790FD0099401AE3
:101B9000022850D83068C005F6D55A4EA06868367D
:101BA00001280FD00528306810D020F001003060E7
:101BB000306820F004003060A068B8B1FFF776FD0F
:101BC00000900FE0306840F00100F4E740F00400BE
:101BD0003060F7E7FFF76AFD0099411A41F288305B
:101BE000814266D830688007F4D50EE0FFF75EFDCD
:101BF000009007E0FFF75AFD0099411A41F2883042
:101C0000814256D830688007F4D42FB1DBF8001039
:101C100021F08051CBF80010A069D0B3DAF8002091
:101C20005146C2F38102022A4AD00228484607D010
:101C3000C8F8600000E03CE0FFF738FD04463BE0F8
:101C40004746C8F86000FFF731FD064605E000BFD3
:101C5000FFF72CFD801B02282BD828688001F7D4C1
:101C6000D4E907010843A16A2B4A490802EB014164
:101C7000626A41EA8211084394F82C1040EA01613B
:101C80002048001F016001203866FFF70FFD044661
:101C900005E034E0FFF70AFD001B022809D8286898
:101CA0008001F7D52BE000BFFFF700FD001B0228E5
:101CB00002D90320BDE8F88F28688001F4D41EE023
:101CC0000128F7D00868E26900F48001914214D13C
:101CD000226A00F03F0191420FD147F6C071626A5B
:101CE0000140914209D1A26A00F44031914204D1ED
:101CF000E16A00F07060884201D00120DAE700203C
:101D0000D8E700000838024000380240000047428F
:101D1000800E4742007000400000FFFF10B5401EDB
:101D2000B0F1807F01D3012010BD4FF0E02460614D
:101D30000F21601701F026FA0020A0610720206122
:101D4000002010BD10B590F83C20012A22D00122BD
:101D500080F83C20CA688C6822F4407222434C68A8
:101D600022F4806222430C6822F4006222430C6950
:101D700022F4805222434C6922F400522243C96962
:101D8000002322F480420A4301684A6480F83C3010
:101D9000002010BD022010BD70B590F83C20012A33
:101DA00032D0012480F83C40022280F83D200368B4
:101DB0005A689D6822F070060A6832435A60134BD5
:101DC00002689A4214D0B2F1804F11D0104B9A425F
:101DD0000ED0104B9A420BD00F4B9A4208D00F4BAB
:101DE0009A4205D00E4B9A4202D00E4B9A4204D131
:101DF000496825F080031943916080F83D40002137
:101E000080F83C10084670BD022070BD0000014003
:101E10000004004000080040000C004000040140A5
:101E2000004001400018004010B50446006804223C
:101E300000F01BFF2068416C41F4004141642068C0
:101E4000816801F00701062903D0016841F0010112
:101E50000160002010BD10B5040003D094F83D00CF
:101E600010B107E0012010BD002084F83C0020469E
:101E700000F00CF8022084F83D00211D206800F0DD
:101E800083FE012084F83D00002010BD10B586B00F
:101E9000044614216846FEF7CBF921680022244845
:101EA000B1F1804F0CD0234B994211D1016841F020
:101EB00002010160006800F00200059006B010BD4C
:101EC000016841F001010160006800F00100F4E7E1
:101ED000194B994207D1016841F004010160006883
:101EE00000F00400E9E715488142E7D11048001DE1
:101EF000016841F002010160006800F002000590F5
:101F00000B481038016841F0010101600068694622
:101F100000F001000590402000900220CDE9010270
:101F20000320CDE903200648FFF7DEFAC6E70000EC
:101F30004038024000040040000800400004014016
:101F40000000024070B5044690F83C00012817D00C
:101F5000012584F83C50022084F83D002068826806
:101F600022F0770222F47F4282600868502830D045
:101F70000DDC20284DD005DC98B310283BD148E07B
:101F8000022070BD302844D0402834D139E0602888
:101F900028D0702806D0B0F5805F2CD0B0F5005F57
:101FA00029D10AE0CB68D1E90121206800F06AFE5E
:101FB0002068816841F0770109E0CB68D1E901210F
:101FC000206800F05FFE2068816841F480418160F4
:101FD00011E0CA684968206800F028FF5021206895
:101FE00007E016E0CA684968206800F030FF602109
:101FF000206800F051FE84F83D50002084F83C0039
:1020000070BDCA684968206800F010FF4021206850
:10201000EFE7226801461046EBE70000F0B587B015
:10202000044614216846FEF703F92B4920688842CC
:1020300050D12A480024016841F001010160016883
:1020400001F001010591016841F0020101600168A0
:1020500001F002010591016841F00401016000688E
:10206000022600F004000590202001278DE8C10021
:10207000032569461A48CDE90345FFF735FA8DE88F
:10208000E00069461748CDE90345FFF72DFA4FF404
:10209000E0700090CDE9016469461348CDE903453D
:1020A000FFF722FA0021114800F0A6F804210F489A
:1020B00000F0A2F808210D4800F09EF800210B481E
:1020C000FFF7B2FE04210948FFF7AEFE08210748DA
:1020D000FFF7AAFE07B0F0BD00040140303802400F
:1020E00000000240000402400008024010020020EC
:1020F00070B5044690F83C000D4601280DD001262D
:1021000084F83C60022084F83D0042B1042A18D0D3
:10211000082A2AD00C2A4DD139E0022070BD20684F
:1021200000F0C2FD2068816941F0080181612068EA
:10213000816921F004018161206881692A69114364
:1021400011E0206800F0E0FD2068816941F4006141
:1021500081612068816921F48061816120688169E1
:102160002A6941EA0221816124E0206800F002FE30
:102170002068C16941F00801C1612068C16921F08E
:102180000401C1612068C1692A69114311E0206816
:1021900000F024FE2068C16941F40061C16120683B
:1021A000C16921F48061C1612068C1692A6941EA7D
:1021B0000221C16184F83D60002084F83C0070BDBC
:1021C00010B5040003D094F83D0010B107E00120E1
:1021D00010BD002084F83C00204600F00CF80220DE
:1021E00084F83D00211D206800F0CEFC012084F819
:1021F0003D00002010BD704710B504460068012264
:1022000000F026FD0B492068884202D00A49884226
:1022100003D1416C41F4004141642068816801F0C0
:102220000701062903D0016841F001010160002087
:1022300010BD000000000140000401407047000094
:1022400070B5026804461068D168536910F00F0F2A
:1022500052D003F0010501F490762E435FD0C207FF
:1022600005D0CA0503D5E26B42F00102E2634207E2
:1022700005D5DA0703D0E26B42F00202E26382077F
:1022800005D5DA0703D0E26B42F00402E2630207ED
:1022900007D501F020022A4303D0E26B42F0080286
:1022A000E263E26B002A33D0800604D5880602D5AB
:1022B000204600F0F4FD20684069E16BC0F3801017
:1022C000090700D428B3204600F0DBFD20684169EF
:1022D00049061AD5416921F040014161606BA0B106
:1022E0001B490165606BFEF77AFF002810D0606B18
:1022F000016DBDE870400847830610D58B060ED5EA
:102300002046BDE8704000F0CABD2046FFF796FFAA
:1023100070BD2046FFF792FF0020E06370BD03060A
:1023200006D50B0604D52046BDE8704000F096BEE9
:102330004006F3D54806F1D5D168204621F040018A
:10234000D160202184F8391000F0D2F870BD00006F
:10235000732E000870B5040004D094F839000025ED
:1023600010B106E0012070BD84F83850204600F01E
:1023700023F8242084F839002068C16821F4005132
:10238000C160204600F0D6FD2068016921F490412B
:1023900001612068416921F02A0141612068C1681A
:1023A00041F40051C160E563202084F8390084F8CD
:1023B0003A00002070BD000010B586B0044614211C
:1023C0006846FDF735FF18492068884229D117482B
:1023D000016841F010010160006800F010000590F4
:1023E00012481438016841F0010101600068694633
:1023F00000F0010005904FF4C060009002200190B1
:102400000120029003200390072004900848FFF762
:102410006BF8002211462520FFF7B6F92520FFF7BB
:10242000A5F906B010BD000000100140443802407C
:102430000000024070472DE9F843044690F8390047
:102440001F4616460D46202850D1B5B1AEB194F8BE
:10245000380001284AD0012084F838004FF00008E5
:10246000C4F83C80212084F83900FFF71FF9A684C6
:102470008146E68484F8388026E00120BDE8F883B0
:10248000E08C401EE084A0684B46B0F5805F4FF0C2
:1024900000024FF080012046009703D000F00FFEAD
:1024A000E8B90DE000F00BFEC8B928882168C0F338
:1024B00008004860206908B16D1C05E0AD1C03E010
:1024C000216815F8010B4860E08C0028D8D14B46F4
:1024D000002240212046009700F0F1FD08B10320C2
:1024E000CCE7202084F839000020C7E70220C5E7A8
:1024F0007047FEE70D4810B5016886B041F008014D
:10250000016000680A4C00F008000590032000906C
:1025100001200190039069462046FEF7E5FF012265
:1025200003212046FFF7BCF806B010BD303802404A
:10253000000C0240F0B5F7EE001A2DED028B81EE93
:10254000801A134885B081EE208A80ED038A80EDE1
:10255000048A80ED058A18EE100AFDF79AFF0646F8
:102560000F4618EE100AFDF794FF04460D4618EECC
:10257000100AFDF78EFF8DE8F00041EC100B05A06E
:1025800053EC102B00F0D6FD05B0BDEC028BF0BD76
:10259000680000206761696E5F613A252E32662C03
:1025A0006761696E5F623A252E32662C6761696EDB
:1025B0005F633A252E32662E0D0A000009489FED12
:1025C000080ADFED090A002180EC020A81600C3064
:1025D00080EC020A81600C3080EC020A8160704756
:1025E000CDCC4C3D90020020000000007FB50021C2
:1025F0001B48009101910291184A03910260012445
:102600004FF480320461C0E90121047680F8201083
:10261000144AC0E90A210225C561C16080F8304032
:102620004161FEF7E5FB08B1FEF7F3FA0320CDE9BF
:1026300000040720029069460948FEF7EBFA08B14A
:10264000FEF7E7FA0420CDE9000569460448FEF7E5
:10265000E1FA002801D0FEF7DCFA7FBD002001403E
:10266000A80000200100000F094808B5016841F4E6
:10267000800101600068002200F480000090114693
:102680003820FFF781F8BDE808403820FFF76EB822
:102690003038024030B587B014216846FDF7C8FDD8
:1026A0001D480024016841F010010160016801F03B
:1026B00010010591016841F080010160016801F09D
:1026C00080010591016841F001010160016801F09C
:1026D00001010591016841F002010160016801F00A
:1026E00002010591016841F00401016000680B4D91
:1026F00000F004000590002240212846FEF7D0FF9C
:10270000402000900120CDE9010469462846039449
:10271000FEF7EAFE07B030BD30380240001002403C
:1027200010B586B0002416480094019402940394D6
:1027300004944FF08041059401600321C0E9011425
:102740004FF6FF71C0E903148461FFF784FB08B101
:10275000FEF75FFA4FF48050009069460848FFF793
:10276000F1FB08B1FEF755FA049404A90448059456
:10277000FFF712FB002801D0FEF74BFA06B010BDA0
:102780005001002010B586B0002417480094019431
:1027900002940394049413490594016040F69F71D8
:1027A000C0E901144FF6FF71C0E903148461FFF71B
:1027B00052FB08B1FEF72DFA4FF4805000906946A5
:1027C0000948FFF7BFFB08B1FEF723FA049404A9F8
:1027D00005480594FFF7E0FA002801D0FEF719FA42
:1027E00006B010BD000400409001002010B586B076
:1027F000002418480094019402940394049414490A
:102800000594016053214160102181604FF6FF71F2
:10281000C0E9031480218161FFF71DFB08B1FEF7B9
:10282000F8F94FF48050009069460A48FFF78AFB98
:1028300008B1FEF7EEF9049404A906480594FFF7E1
:10284000ABFA002801D0FEF7E4F906B010BD000095
:1028500000080040D0010020F0B595B000240F948E
:1028600010941194129413941C2168461494FDF74B
:10287000DFFC202107A8FDF7DBFC33483149602647
:1028800001600121C0E901164AF20F41C0E90314B9
:102890008027C0E90547FFF7DEFA08B1FEF7B9F96E
:1028A0004FF480550FA928480F95FFF74BFB08B14F
:1028B000FEF7AFF92448FFF783FC08B1FEF7A9F94A
:1028C000CDE9134713A92048FFF766FA08B1FEF7D0
:1028D000A0F9CDE9006402940394049405940022C5
:1028E000694619480694FFF703FC08B1FEF791F911
:1028F000042269461448FFF7FBFB08B1FEF789F98B
:10290000082269461048FFF7F3FB08B1FEF781F98A
:102910004FF4006007904010CDE908040B20CDE98A
:102920000A054FF400500C9040000E9007A906488D
:10293000FFF708FA08B1FEF76CF90348FFF76EFBE2
:1029400015B0F0BD00040140100200200C4810B585
:102950000A4901604FF4E1314160002181600C229D
:10296000C160C0E904128161C161FFF7F3FC002876
:1029700003D0BDE81040FEF74CB910BD0010014077
:1029800050020020FEE7000010B516A000F0D2FBB8
:1029900017481849D0ED000A91ED000AF4EEC00A7C
:1029A000F1EE10FA01DD80ED000A1348012240210A
:1029B00080ED040A114880ED040A114890ED000AE8
:1029C000104880ED040A104890ED000A0F4880ED91
:1029D000040A0F48FEF764FEBDE810400DA000F0A9
:1029E000A9BB00004D4F543A20496E69740D0A008E
:1029F0001400002010000020B4020020DC0200209F
:102A00001C00002004030020180000202C030020DC
:102A1000001002404D4F543A20456E61626C6520B3
:102A20006472697665722E0D0A000000704700001E
:102A300027489FED260ADFED290A80ED000A9FED69
:102A4000250A002180ED010A9FED230A80ED020A8C
:102A5000C0ED030A80ED050A80ED060A80ED070A45
:102A600001622830F3EE040AC0ED000A80ED010A8D
:102A700080ED020A80ED030A80ED050A80ED060A6A
:102A800080ED070A01627838F6EE000AC0ED000A10
:102A900080ED010A80ED020A80ED030A80ED050A4F
:102AA00080ED060A80ED070A01622830C0ED000AB9
:102AB00080ED010A80ED020A80ED030A80ED050A2F
:102AC00080ED060A80ED070A01627047CDCCCC3E4E
:102AD000040300209A99193F0000000000007A4486
:102AE00070477047FEF7E8BD30B593B030216846B7
:102AF000FDF79EFB14210CA8FDF79AFB1948002551
:102B0000016841F080510160006800F08050119030
:102B10001548016841F4804101600068022400F416
:102B20008040119001200090000401908001CDE9C7
:102B3000064008AA0420A82182E813000B906846EA
:102B4000FEF73EFF0CA90F2081E831004FF4A050A2
:102B50000F90E002109005210CA8FEF747FE13B07D
:102B600030BD000040380240007000400548016858
:102B700041F47001016003494FF000608039086042
:102B80007047000088ED00E0F0B50268254C264D46
:102B9000264E274F274B4FF0804CA04209D060456E
:102BA00007D0A84205D0B04203D0B84201D0984225
:102BB00004D122F0700E4A6842EA0E02A0421BD0F5
:102BC000604519D0A84217D0B04215D0B84213D0F2
:102BD000984211D0184DA8420ED0184DA8420BD0E3
:102BE000174DA84208D0174DA84205D0164DA8424F
:102BF00002D0164DA84203D122F44075CA682A4378
:102C00004D6922F080022A4302608A68C2620A6823
:102C10008262A04201D0984201D109690163012179
:102C20004161F0BD00000140000400400008004088
:102C3000000C0040000401400040014000440140FD
:102C40000048014000180040001C004000200040E7
:102C500010B501F01F030121046A99408C430462FE
:102C6000016A9A401143016210BD10B501F01F03C3
:102C70000421046A99408C430462016A9A4011431A
:102C8000016210BD10B5846842EA032224F47F4437
:102C90000A432243826010BD826822F070020A4318
:102CA00042F0070181607047F0B5026A22F001022C
:102CB0000262036A42688469124E24F073050C684C
:102CC0002C4323F002058B682B430D4DA84201D005
:102CD000B04205D123F00807CB683B4323F004033F
:102CE000A84201D0B04205D14D6922F4407215438B
:102CF0008A692A4342608461496841630362F0BD86
:102D00000000014000040140F0B5026A22F0100208
:102D10000262026A436884690D6824F4E64444EA66
:102D200005248D6822F0200242EA05120F4D104E54
:102D3000A84201D0B04206D1CF6822F0800242EA18
:102D4000071222F04002A84201D0B04207D14D69DB
:102D500023F4406343EA85038D6943EA85034360B6
:102D60008461496881630262F0BD00000000014097
:102D700000040140F0B5026A22F480720262026A25
:102D80004368C46922F4007224F073050C68124E83
:102D90002C438D6842EA05220E4DA84201D0B04274
:102DA00006D1CF6822F4006242EA072222F4806250
:102DB000A84201D0B04207D14D6923F4405343EA01
:102DC00005138D6943EA05134360C4614968C16313
:102DD0000262F0BD000001400004014030B5026A0B
:102DE00022F480520262046A4268C3690D6823F4C7
:102DF000E64343EA05238D6824F4005444EA05348D
:102E0000084DA84202D0084DA84204D14D6922F4D1
:102E1000804242EA85124260C361496801640462EB
:102E200030BD0000000001400004014010B5036AFD
:102E3000046A24F001040462846924F0F00444EA82
:102E4000021423F00A020A438461026210BD10B525
:102E5000036A23F0100303628369046A23F4704356
:102E600043EA023224F0A00343EA011182610162C5
:102E700010BD10B5806B0021C185C184FFF7DEF95C
:102E800010BD0168CA6822F49072CA6001684A697C
:102E900022F001024A61202180F83A10704710B5F3
:102EA00090F83A10222901D0022010BD8168B1F5B6
:102EB000805F11D00169002901681FD0496801F0C5
:102EC0007F03816A4A1C82620B70C18D491E09040E
:102ED000090CC18518D02BE00269816A002A0268BA
:102EE000526805D0D2B20A80816A491C8162ECE73F
:102EF000C2F308020A80816A891CF7E74A68816A7E
:102F00004B1C83620A70E0E70168CA6822F0200265
:102F1000CA600168CA6822F48072CA6001684A699E
:102F200022F001024A61202180F83A10FFF782FA6C
:102F3000002010BD2DE9F041044600680169E268F7
:102F400021F44051114301612169A068E2690843FD
:102F50006169114308432168CA6849F20C639A43C6
:102F60000243CA6020684169A26921F4407111439B
:102F70004161E069192764253226B0F5004F354AD2
:102F8000354920684FF0000806D0884201D09042B1
:102F900036D1FEF7D5FC35E0884201D0904202D10F
:102FA000FEF7CEFC01E0FEF7BBFC61684A18A0FB0F
:102FB000070148EB0803FDF703F90146B0FBF5F004
:102FC0000201B1FBF5F06FF01803584301EB8000EC
:102FD00006EBC000B0FBF5F000F0F80002EB400299
:102FE000B1FBF5F0584301EB800006EBC000B0FBED
:102FF000F5F000F00700216810448860BDE8F0811A
:10300000FEF78EFC61688B0F8A00A0FB0701FDF7BD
:10301000D7F80146B0FBF5F06FF01802504301EB12
:10302000800006EB0010B0FBF5F000F0F002B1FB01
:10303000F5F002EB0012B1FBF5F06FF01803584306
:1030400001EB800006EB0010B0FBF5F000F00F0084
:10305000D1E70000001401400010014090F8391041
:10306000212901D0022070478168B1F5805F016A93
:103070000BD04A1C0262026809785160C18C491E5B
:103080000904090CC1840ED017E009880268C1F355
:103090000801516001690029016A02D0491C0162DE
:1030A000ECE7891CFBE70168CA6822F08002CA606D
:1030B0000068C16841F04001C160002070472DE9FF
:1030C000F041984617460E460446069D1DE0681CD2
:1030D0001BD02DB1FEF7EAFAA0EB0800A84214D9E4
:1030E0002068C16821F4D071C1602068416921F075
:1030F00001014161202084F8390084F83A00002061
:1031000084F838000320BDE8F0812068006836EAC2
:10311000000004D00020B842D9D00020F3E70120FD
:10312000F9E700000148FFF78BB8000050020020CB
:10313000FEE700000FB4054B10B503A9044A02983E
:1031400000F0C4FC10BC5DF814FB0000C94200088C
:103150008C00002003B401984100009850EAC1207F
:1031600018BF04204A0D18BF40F0010040F2FF7262
:10317000B2EB515F08BF40F00200012808BF0520F4
:1031800002B070470907090E002804DB00F1E020B7
:1031900080F80014704700F00F0000F1E02080F884
:1031A000141D70470000000070B59B482DED020B08
:1031B0002DED068B079D25F00044A04218DC9748B2
:1031C000844202DC0AD1069840B19DED060BBDECAD
:1031D000068B02B0BDE8704000F048BB002DCCBFAC
:1031E0009FED8F0B9FED900BBDEC068B02B070BD79
:1031F0008F48A04215DD8F48A042D8BF4FF0FF3462
:1032000058DD9DED060B51EC100BFFF7A3FF0428D2
:1032100008BF00F051FB9DED060BBDEC068B02B024
:1032200070BD9DED060B51EC100B01F041F8CDE99E
:10323000060181489FED828BA0423CDD8248A0427E
:103240001FDD00249FED82AB9DED060B53EC1A2B86
:1032500051EC100BFCF7F7FF9DED060B41EC190B41
:1032600053EC1A2B51EC100BFDF794F853EC182B80
:10327000FDF78AF853EC192BFDF72DFACDE906017D
:1032800049E09DED060B012453EC182B51EC100B7B
:10329000FCF7D9FF9DED060B41EC190B53EC182BF5
:1032A00051EC100BFDF770F853EC192BFDF713FAE6
:1032B000CDE906012FE06848A0421FDD02249FED02
:1032C000689B9DED060B53EC192B51EC100BFDF791
:1032D00061F853EC182BFCF7B6FF9DED060B41ECA3
:1032E000180B53EC192B51EC100BFDF74DF853EC68
:1032F000182BFDF7F0F9CDE906010CE09DED060B6A
:10330000032453EC102B9FED580B51EC100BFDF7E1
:10331000E2F9CDE906019DED060B53EC102B51ECC3
:10332000100BFDF737F841EC180B53EC182BFDF799
:1033300031F841EC190B4E480621B0EE490AF0EE87
:10334000690A784400F016FA53EC182B51EC100B74
:10335000FDF720F841EC180B4648B0EE490AF0EEB4
:10336000690A0521784400F005FA53EC192B51EC59
:10337000100BFDF70FF841EC100B51EC180B53EC50
:10338000102B002C0EDAFCF75EFF9DED061B53ECB4
:10339000112BFCF7FFFF9DED061B53EC112BFCF7E7
:1033A000F6FF35E0FCF74FFF9DED061B53EC112BAC
:1033B000FCF7F0FF41EC100B2F48784400EBC40001
:1033C00090ED001B51EC100B53EC112BFCF7DCFFC4
:1033D0009DED061B53EC112BFCF7D6FF41EC100BB7
:1033E0002648784400EBC40090ED001B51EC100B14
:1033F00053EC112BFCF7CBFF41EC100B002DA2BFBF
:10340000BDEC068B02B070BD51EC100B81F0004199
:1034100041EC100B01E70000000010440000F07FB9
:10342000182D4454FB21F93F182D4454FB21F9BFBA
:103430000000DC3F0000203E0000F33F00000000E1
:10344000000000000000F03F0000E63F0000000028
:103450000000000000000040008003400000000069
:10346000000000000000F83F000000000000F0BF76
:10347000A21C0000581C0000E21B00009A1B000068
:1034800070B56B4E2DED040B2DED028B82B0DDF887
:103490001CC0DDE905235C422CF000411C4341EADD
:1034A000D474049D22F00040B44205D86C422C43F1
:1034B00040EAD474B4420BD99DED061B9DED040B7C
:1034C00002B0BDEC028B04B0BDE8704000F0D8B98A
:1034D000ACF14054A4F17F641C430BD0022404EAF5
:1034E000AC7444EAD27405439FED538B9FED542B8B
:1034F00007D015E09DED040B51EC100B00F0D0FE51
:1035000042E0002C11BF012C9DED040B02B0BDEC7C
:10351000028B04BF04B070BD022C38D0032C3BD00A
:103520000B439FED491B9FED4A0B0AD0B14218D1C6
:10353000B04209D121F0804120F0804007910590F0
:103540000FE0002A15DA10E0434B7B44002C08BF43
:1035500093ED000B0DD0012C10D0022C17D0032CB2
:103560001AD0B0421DD1002A03DAB0EE410AF0EEC3
:10357000610A02B0BDEC028B04B070BD93ED000B8C
:1035800051EC100B81F0004141EC100BF1E7B0EE73
:10359000480AF0EE680AECE7B0EE420AF0EE620A82
:1035A000E7E7401A00153C28C8BF8DED000B19DC79
:1035B000BCF1000FBEBF10F13C0F9FED290B8DED4C
:1035C000000B0FDB9DED060B53EC102B9DED040B58
:1035D00051EC100BFDF77FF800F06AFE00F060FE82
:1035E000CDE90001002C08BF9DED000BC1D0012CDE
:1035F00010D0022C9FED1C0B53EC102B9DED000BFB
:1036000051EC100B0DD0FCF7BFFE53EC182BFCF760
:10361000BBFEB9E7019880F0004001909DED000BE2
:10362000A7E7FCF7B1FE53EC182BFCF7B0FEABE7B5
:103630000000F07F00000000182D4454FB210940D9
:10364000182D4454FB2109C0182D4454FB21F9BF07
:10365000182D4454FB21F93FCA1A00000000000055
:103660000000000000000000075C143326A6A13C07
:1036700010B52DED040B86B09DED060B10EE100A73
:1036800010EE901A8DED000B002818BF01200843A2
:1036900020F00040C0F17F6000F1E040C00F21D178
:1036A0009DED080B10EE101A10EE900A8DED000B38
:1036B000002918BF0121084320F00040C0F17F60BD
:1036C00000F1E040C00F0DD129490798B1EB400F40
:1036D00004BF0698002842D00998400004BF08980B
:1036E00000283CD09DED080B53EC102B9DED060BF4
:1036F00051EC100BFDF75EF8CDE902019DED020BD8
:1037000040F2FF7110EE900A8DED000B31EA10507F
:1037100021D00798039900F0004001F00041884251
:1037200019D09DED080B8DED040B9DED020B8DED79
:10373000000B10EE900A059961F31E0005909DEDB7
:10374000041B9DED020B51EC110B53EC102BFCF7FD
:103750001EFECDE902019DED020B0AB010BD012055
:1037600000F0CAF80AB0BDE8104000F095B80000BB
:103770000000E0FF70B504462DED028B4D1E00EBFE
:10378000C500B0EE408AF0EE608A90ED000B35F097
:10379000060017D053EC182B51EC100BFCF7FAFD78
:1037A00041EC100B6D1E04EBC50090ED001B51ECBD
:1037B000100B53EC112BFCF746FD41EC100B35F0D0
:1037C0000600E7D1022D36D0042D1CD0062D1CBFDB
:1037D000BDEC028B70BD53EC182B51EC100BFCF7B9
:1037E000D9FD94ED0A1B53EC112BFCF72CFD53EC87
:1037F000182BFCF7CFFD94ED081B53EC112BFCF7B5
:1038000022FD41EC100B53EC182B51EC100BFCF784
:10381000C1FD94ED061B53EC112BFCF714FD53EC8A
:10382000182BFCF7B7FD94ED040B53EC102BFCF7B1
:103830000AFD41EC100B53EC182B51EC100BFCF76C
:10384000A9FD94ED021B53EC112BFCF7FCFC53EC8F
:10385000182BFCF79FFD94ED001B53EC112BFCF78C
:10386000F2FCBDEC028B41EC100B70BD10B553ECBB
:10387000102B51EC100BFCF7E6FC41EC100B10BDCB
:1038800010B553EC112B51EC100BFCF7DCFC41ECA8
:10389000100B10BD000000009FED050B10B553ECA0
:1038A000102B51EC100BFCF716FF41EC100B10BD68
:1038B00000000000000000009FED050B10B553EC68
:1038C000102B51EC100BFCF765FD41EC100B10BDFB
:1038D000000000000000001002E008C8121F08C12C
:1038E000002AFAD170477047002001E001C1121F81
:1038F000002AFBD1704700000149086070470000B2
:10390000900000202DE9FF5F82B00021DDE9043046
:10391000020DDDF840B0034318D044F61050A2F277
:10392000FF3242431514119801281FD0A5EB0B005C
:10393000401C5FEA000A4FF000064E4FDFF8389156
:10394000B046504615D5CAF1000413E01198012481
:103950004AA3012801D16FEA0B010298119AC0E92C
:103960000031C0E9024206B0BDE8F09FCBF1000093
:10397000DFE704460021404A491842EB0450CDE9F4
:10398000001012E0E00707D032463B464046494669
:10399000FCF700FD8046894632463B4610461946F4
:1039A000FCF7F8FC06460F466410002CEAD1DDE96E
:1039B0000401DDE90023BAF1000F06DAFCF7EAFCA6
:1039C00042464B46FCF7E6FC05E0FCF784FE424627
:1039D0004B46FCF780FE04460E460022284BFCF7BF
:1039E0006BFD03D84FF0FF30014607E00022254B66
:1039F00020463146FCF727FCFCF71FFF102409E0A6
:103A0000002C0ADB0A220023FCF7DAFB039B30328E
:103A10001A55641E50EA0102F2D1641C039AC4F1E3
:103A200011031444119A012A03D0012208430DD135
:103A30000AE0084304D000204FF0110B119072E708
:103A4000A3EB0B056D1E0DE05B4504DD4FF000029E
:103A500005F1010504E003DA4FF00002A5F10105CC
:103A6000002AECD002981199C0E90231C0E9004562
:103A700079E70000000014400000F03F3000000033
:103A80000000F0430000E03F10B510EE100AFCF714
:103A900000FD41EC100B9FED0A1BFFF7E9FD51EC17
:103AA000100BFCF721FD00EE100AB5EEC00AF1EE96
:103AB00010FA03DADFED040A30EE200A10BD000030
:103AC00000000060FB211940DB0FC9402DE9FF4FCA
:103AD00095B09B468946064600250FE2252877D1FA
:103AE00000242746F84A0121059400E0044316F813
:103AF000013F203B01FA03F01042F7D130782A2829
:103B000011D06FF02F033078A0F13002092A16D8B7
:103B1000059A44F0020402EB820203EB42021044D5
:103B2000761C0590EFE759F8042B0592002A03DA7A
:103B3000504244F40054059044F00204761C30785E
:103B40002E2816D116F8010F44F004042A280DD0AF
:103B50006FF02F023078A0F13003092B09D807EB62
:103B6000870302EB4303C718761CF3E759F8047B7D
:103B7000761C30786C280FD006DC4C2817D06828CB
:103B80000DD06A2814D104E0742810D07A280FD1FF
:103B90000DE044F400140AE044F4801401E044F41D
:103BA00040147278824202D104F58014761C761C8F
:103BB000307866280BD013DC582877D009DC002831
:103BC00075D04528F6D04628F4D047281AD19DE173
:103BD00018E0632835D0642879D0652812D195E1A2
:103BE000702873D008DC6728F1D069286FD06E2860
:103BF0000DD06F2806D1B5E073282CD0752875D06C
:103C0000782874D05A46179990476D1C75E1C4F313
:103C10000250022809D003280DD0D9F8001004283A
:103C20000DD00D6009F1040967E1D9F80010EA1719
:103C3000C1E90052F6E7D9F800100D80F2E70D70E7
:103C4000F0E719F8041B8DF8001000208DF8010032
:103C5000EA46012003E059F804AB4FF0FF3061075A
:103C60004FF0000102D40DE008F101018846B9428D
:103C70000FDA8045F8DB1AF808100029F4D108E0C3
:103C800008F1010188468142FADB1AF80810002980
:103C9000F6D105985B46A0EB080721463846179AEF
:103CA00000F094FA284400EB080507E04DE029E114
:103CB0000DE01AF8010B5A4617999047B8F1010820
:103CC000F7D25B4621463846179A13E142E00A22B2
:103CD0000092C4F302524FF0000A022A08D059F8A9
:103CE00004CB032A4FEAEC710AD00DE029E02AE068
:103CF00009F1070121F00702F2E802C1914609E04B
:103D00000FFA8CFC4FEAEC71042A03D14FFA8CFCB9
:103D10004FEAEC71002907DA0A460021DCF1000CB9
:103D200061EB02012D2202E0220504D52B228DF841
:103D30000420012203E0E20701D02022F7E79046A9
:103D400059E00A2102E010220DE010214FF0000A94
:103D500000910BE010224FF0000A44F00404082701
:103D6000009203E008224FF0000A0092C4F30252CE
:103D7000022A05D059F804CB0021032A08D009E013
:103D800009F1070121F00702F2E802C1914605E0BE
:103D90001FFA8CFC042A01D10CF0FF0C4FF0000834
:103DA000220728D5702806D0009B83F0100353EA21
:103DB0000A0305D00EE040228DF80420012208E01D
:103DC0005CEA010206D030228DF804208DF805004F
:103DD00002229046009B83F0080353EA0A030AD1AB
:103DE0005CEA010201D1620705D530228DF804207A
:103DF0004FF001087F1E582804D034A003900EA86D
:103E000002900DE036A0F9E753466046009AFCF7B1
:103E1000D7F984460398825C0298401E0290027093
:103E20005CEA0100F0D1029806A9081A00F1200A04
:103E3000600702D524F4803400E00127574502DDF5
:103E4000A7EB0A0000E0002000EB0A0100900598B3
:103E50004144401A0590E00306D45B462146179A78
:103E6000059800F0B3F90544002706E001A85A467A
:103E7000C05D179990476D1C7F1C4745F6DBE0033A
:103E80000CD55B462146179A059800F09FF905442A
:103E900004E030205A46179990476D1C0099481E3F
:103EA00000900029F5DC08E0029802995A46007853
:103EB000491C0291179990476D1CBAF10001AAF1B3
:103EC000010AF1DC65E100000928010030313233DC
:103ED0003435363738396162636465660000000046
:103EE0003031323334353637383941424344454630
:103EF0000000000000F058F90544761C30780028D6
:103F00007FF4ECAD19B02846BDE8F08F620700D40D
:103F1000062709F1070222F0070CFCE80223E1461C
:103F200003F000485FEA080C02D00FF2702C0DE09D
:103F30005FEA045C02D50FF2682C07E05FEAC47CFC
:103F400002D00FF2602C01E0AFF2700C4FF0FF389E
:103F500023F00043CDF850C065280CD006DC45287E
:103F600009D046281DD047283DD13DE0662818D00D
:103F700067287ED138E00021112F01DB112000E0FD
:103F8000781CCDE9000106A90EA8FFF7BBFCDDE90E
:103F90000F010E9A03910021009207F1010A04918A
:103FA0004DE04FF000400097CDE9011006A90EA8A2
:103FB000FFF7A8FCDDE90F0203920E9B1199002286
:103FC000DDF80CA00093049211B9791C00EB010AF2
:103FD000B7EB0A0004D4C0F1FF3007F1010A0490E6
:103FE000AAEB0700019044E0012F00DA012700212D
:103FF000112F01DD112000E03846CDE9000106A9AE
:104000000EA8FFF77FFCDDE90F010E9A0391002156
:1040100004910092BA4621070CD40399514500DA65
:104020008A46BAF1010F05DD009AAAF10101515C3F
:10403000302908D0B84202DA10F1040F06DA012163
:10404000CDE9011015E0AAF10101E9E7002805DC3E
:10405000049901440491AAEB000102E0411C51457E
:1040600000DD8A460499401A401C01904FF0004040
:104070000290200704D40198504501DBCDF804805C
:1040800000208DF84F0002980DF14F07B0F1004F5E
:1040900025D02B200E9002984FF0020800280CDA51
:1040A000404202902D200E9007E00A210298FCF772
:1040B00037FA3031029007F8011DB8F10001A8F17C
:1040C0000108F2DC02980028EFD1791E0E980870E2
:1040D000307800F0200040F0450007F8020D12A8EB
:1040E000C01B00F107081498007800B1012000EB14
:1040F0000A01019801EBE07105984144401A401E05
:104100000590E00306D45B462146179A059800F017
:104110005DF805441498007818B15A4617999047ED
:104120006D1CE00324D55B462146179A059800F0E4
:104130004DF805441CE00498002807DBDDE9030185
:10414000884203DD0098405C179901E01799302000
:104150005A469047049805F10105401C04900198C7
:10416000401E019004D12E205A46179990476D1C8D
:10417000BAF10001AAF1010ADDDC05E017F8010B34
:104180005A46179990476D1CB8F10001A8F1010833
:10419000F4DC5B462146179A0598ABE62D0000003B
:1041A0002B000000200000002DE9F041044600250E
:1041B0001E461746880404D405E039462020B0473F
:1041C0006D1C641EF9D52846BDE8F0812DE9F0414B
:1041D000044600251E469046C80301D5302700E05E
:1041E0002027880404D505E041463846B0476D1CB9
:1041F000641EF9D52846BDE8F081000010EE100AD3
:104200000349A1EB600000EE900A20EE200A7047FF
:10421000865A375FB5EEC00AF1EE10FA04D210EEFE
:10422000100A1B49884232D9B5EEC00ADFED190ADF
:1042300060EE200ABDEEE01A11EE100AF1EE10FA5F
:1042400000D2401E00EE100A1449F7EE001AB8EE34
:10425000C00A30EEC00ADFED100A60EE200ABCEEA4
:10426000E00A10EE100AC0F3080000EE100A01EB9D
:104270008000B8EE400A90ED011A70EEC00A90ED91
:10428000000A71EEE01A21EE800A00EE810A704702
:10429000CD024CB483F9223E000000447C47000864
:1042A00010B541EC100BFEF77FFF51EC100B10BD69
:1042B00082B0CDE9000121F0004001909DED000B9E
:1042C00002B051EC100B704713B54FF47A73012212
:1042D00069460248FEF7AFF800981CBD5002002066
:1042E0003648B1EE080A2DED028B80ED030AB2EEDE
:1042F000080A80ED020AB7EE000A80ED040AB3EE68
:104300000E0A80ED060AB3EE040A80ED050AB0EE4F
:10431000080A80ED000A80ED010AFDF7D5F9FEF7E5
:10432000E3FBFEF7B7F9FEF79FF9FEF75FF9FEF73B
:1043300093FAFEF7F5F9FEF725FAFEF757FAFEF7BE
:1043400005FB1F480021026851620068016841F0C6
:1043500001010160FEF7CEF84FF47A74204600F0B8
:104360003DF81848FCF7BAFD0A2217491548FCF732
:104370002BFEFEF723F9FEF75BFBDFED140A9FED42
:10438000140AFEF7D7F8FEF7FFFA204600F026F8E9
:10439000204600F023F8FCF759FB9FED0E8ADFED75
:1043A0000E8A00BFB0EE481AF7EE000AB0EE680AB7
:1043B00000F036F8642000F011F8F3E70400002064
:1043C000D0010020A80000209400002000004842F6
:1043D0000AD7233C920A063F000000000F49002242
:1043E0000B685A620A68136843F001031360C0EB5C
:1043F000C00000EB40020868416A9142FCD3016AA8
:1044000041F21112114207D1016A9210114203D1F7
:10441000016821F001010160704700009001002057
:1044200070B5BD482DED088BB0EE408AF0EE419A94
:10443000F0EE608A90ED000AB4EEC08AF1EE10FA58
:1044400001DDB0EE408AF1EE400AB4EEE08AF1EE12
:1044500010FA01D2B0EE608AF4EEC08AF1EE10FAE2
:1044600001DDF0EE408AF4EEE08AF1EE10FA01D2BE
:10447000F0EE608ADFEDA9AAB7EE00AAF5EEC08AD9
:1044800089EEAA0AA64C30EE0A0ABCEEC00A10EE6B
:10449000100AF1EE10FAC6B22CD028EEA80A08EEE7
:1044A000080AFFF7ABFED4ED000A18EE900A80EE82
:1044B000209AFBF7EEFF41EC1B0B18EE100AFBF7FE
:1044C000E8FF41EC100BB0EE4B1AF0EE6B1AFEF762
:1044D000D7FFB0EE408AF0EE608A19EE900AFBF743
:1044E000D8FF53EC182BFBF7AEFEFBF7FDFF00EEF9
:1044F000100A07E094ED000A88EE009A9FED890A01
:1045000039EE800AFFF7C0FA19EE100A864A874989
:10451000B0EE408A904202DD9FED859A05E019EEEB
:10452000100A884201D99FED839A88EE2A0A30EE5C
:104530000A0ABCEEC00A10EE100AB0EE480AC5B274
:1045400000EE905AF8EE600A10EEAA0AFFF762FE3B
:10455000DFED798A794C284620EE280A20EE090AF8
:1045600084ED010AFBF788FF9FED751B53EC112BBF
:10457000FBF70AFF9FED741B53EC112BFBF70AFFAF
:1045800041EC1B0B18EE100AFBF783FF53EC1B2BBF
:10459000FBF7FAFEFBF7A8FF00EE100AFFF73AFE62
:1045A00020EE280A072D20EE091A84ED021AD4ED18
:1045B000011A3AEE610A70EE410AB6EE000AC4ED45
:1045C000000A7CD2DFE805F0A1040B1D2836430069
:1045D00071EE811A40EE801AC4ED031A07E0B0EEC6
:1045E000612A31EE811A00EE802A84ED032A00EE62
:1045F000801A20EE800A84ED041A00BF84ED050ABB
:1046000033E071EE811A20EE802A40EE801A84EDAC
:10461000032AC4ED041A08E020EE802A84ED032A60
:10462000B0EE612A00EE802A0CE000EE801A84EDE4
:10463000051A1AE0B0EE412A00EE802A84ED032A22
:1046400020EE802A31EE811A84ED042AEDE731EE66
:10465000811A40EE801A00EE801A84ED031A20EED3
:10466000801A84ED041AC4ED051A394894ED031A32
:10467000018800EE101AB8EE400A21EE000A84ED1F
:10468000060AD4ED040A018800EE101AB8EE400ABA
:1046900020EE800A84ED070A94ED050A018801EEF8
:1046A000901AF8EE611A60EE211AC4ED081A01881A
:1046B00001EE901AF8EE611A21EE211A00E024E0D2
:1046C0002449BCEEC11A0B6811EE102A5A63028805
:1046D0000B6801EE102AB8EE411A60EE810AFCEE7A
:1046E000E00A10EE902A9A630088096800EE900AAA
:1046F000F8EE600A20EE200ABCEEC00A10EE100AA6
:10470000C8633046BDEC088B70BD9FED130A84ED85
:10471000030A84ED040A71E710000020920A863F24
:104720000C000020DB0FC93F46B6133F46B613BF4F
:1047300046B6133F46B613BFD7B3DD3F4400002053
:10474000000000000000F03F0000004052C1F03FB8
:1047500000000020100200200000000000061016DB
:104760000006101600000000000000000102030413
:104770000607080900000000010203040000000011
:10478000920E493CB10AC93C2BC3163D2EFB483D55
:10479000752B7B3D04A9963D80B6AF3D36BDC83D27
:1047A0002FBCE13D73B2FA3D87CF093E8340163EF0
:1047B000B5AB223EA2102F3ECF6E3B3EC2C5473E58
:1047C0000115543E135C603E7F9A6C3ECCCF783E20
:1047D000C07D823E938E883E229A8E3E32A0943EC9
:1047E00086A09A3EE59AA03E128FA63ED47CAC3EAF
:1047F000EF63B23E2A44B83E491DBE3E15EFC33EAC
:1048000053B9C93ECA7BCF3E4136D53E80E8DA3E39
:104810004F92E03E7533E63EBBCBEB3EEA5AF13EAB
:10482000CBE0F63E275DFC3EE4E7003F3D9C033FC6
:10483000824B063F9BF5083F6B9A0B3FDA390E3FE0
:10484000CDD3103F2A68133FD9F6153FC07F183FDC
:10485000C6021B3FD17F1D3FCBF61F3F9967223F0A
:1048600025D2243F5636273F1594293F4AEB2B3F4C
:10487000DE3B2E3FBB85303FC9C8323FF304353F96
:10488000233A373F4268393F3B8F3B3FF9AE3D3FCC
:1048900067C73F3F70D8413F01E2433F03E4453FD4
:1048A00065DE473F12D1493FF8BB4B3F029F4D3F6A
:1048B000207A4F3F3D4D513F4918533F31DB543F24
:1048C000E595563F5348583F6AF2593F1A945B3F6B
:1048D000532D5D3F05BE5E3F2146603F97C5613F5A
:1048E0005A3C633F59AA643F880F663FD86B673FC5
:1048F0003CBF683FA7096A3F0C4B6B3F5E836C3F30
:1049000093B26D3F9ED86E3F73F56F3F0809713FBC
:104910005213723F4714733FDD0B743F0BFA743F21
:10492000C6DE753F07BA763FC58B773FF853783FB1
:104930009812793F9DC7793F02737A3FBE147B3F3F
:10494000CDAC7B3F283B7C3FC9BF7C3FAC3A7D3F31
:10495000CCAB7D3F23137E3FB0707E3F6DC47E3F66
:10496000580E7F3F6D4E7F3FAB847F3F0FB17F3F3F
:1049700097D37F3F43EC7F3F11FB7F3F0000803F99
:1049800011FB7F3F43EC7F3F97D37F3F0FB17F3FCA
:10499000AB847F3F6D4E7F3F580E7F3F6DC47E3F9F
:1049A000B0707E3F23137E3FCCAB7D3FAC3A7D3F62
:1049B000C9BF7C3F283B7C3FCDAC7B3FBE147B3FD7
:1049C00002737A3F9DC7793F9812793FF853783F39
:1049D000C58B773F07BA763FC6DE753F0BFA743F4B
:1049E000DD0B743F4714733F5213723F0809713F48
:1049F00073F56F3F9ED86E3F93B26D3F5E836C3F01
:104A00000C4B6B3FA7096A3F3CBF683FD86B673FC1
:104A1000880F663F59AA643F5A3C633F97C5613F80
:104A20002146603F05BE5E3F532D5D3F1A945B3FBC
:104A30006AF2593F5348583FE595563F31DB543FA2
:104A40004918533F3D4D513F207A4F3F029F4D3F04
:104A5000F8BB4B3F12D1493F65DE473F03E4453F7A
:104A600001E2433F70D8413F67C73F3FF9AE3D3F4A
:104A70003B8F3B3F4268393F233A373FF304353F92
:104A8000C9C8323FBB85303FDE3B2E3F4AEB2B3F50
:104A90001594293F5636273F25D2243F9967223F58
:104AA000CBF61F3FD17F1D3FC6021B3FC07F183F83
:104AB000D9F6153F2A68133FCDD3103FDA390E3FA0
:104AC0006B9A0B3F9BF5083F824B063F3D9C033F93
:104AD000E4E7003F275DFC3ECBE0F63EEA5AF13EBC
:104AE000BBCBEB3E7533E63E4F92E03E80E8DA3ECC
:104AF0004136D53ECA7BCF3E53B9C93E15EFC33EC2
:104B0000491DBE3E2A44B83EEF63B23ED47CAC3E63
:104B1000128FA63EE59AA03E86A09A3E32A0943E11
:104B2000229A8E3E938E883EC07D823ECCCF783EC8
:104B30007F9A6C3E135C603E0115543EC2C5473EF1
:104B4000CF6E3B3EA2102F3EB5AB223E8340163EB9
:104B500087CF093E73B2FA3D2FBCE13D36BDC83D5B
:104B600080B6AF3D04A9963D752B7B3D2EFB483D9D
:104B70002BC3163DB10AC93C920E493C000000000F
:104B8000920E49BCB10AC9BC2BC316BD2EFB48BD51
:104B9000752B7BBD04A996BD80B6AFBD36BDC8BD23
:104BA0002FBCE1BD73B2FABD87CF09BE834016BEEC
:104BB000B5AB22BEA2102FBECF6E3BBEC2C547BE54
:104BC000011554BE135C60BE7F9A6CBECCCF78BE1C
:104BD000C07D82BE938E88BE229A8EBE32A094BEC5
:104BE00086A09ABEE59AA0BE128FA6BED47CACBEAB
:104BF000EF63B2BE2A44B8BE491DBEBE15EFC3BEA8
:104C000053B9C9BECA7BCFBE4136D5BE80E8DABE35
:104C10004F92E0BE7533E6BEBBCBEBBEEA5AF1BEA7
:104C2000CBE0F6BE275DFCBEE4E700BF3D9C03BFC2
:104C3000824B06BF9BF508BF6B9A0BBFDA390EBFDC
:104C4000CDD310BF2A6813BFD9F615BFC07F18BFD8
:104C5000C6021BBFD17F1DBFCBF61FBF996722BF06
:104C600025D224BF563627BF159429BF4AEB2BBF48
:104C7000DE3B2EBFBB8530BFC9C832BFF30435BF92
:104C8000233A37BF426839BF3B8F3BBFF9AE3DBFC8
:104C900067C73FBF70D841BF01E243BF03E445BFD0
:104CA00065DE47BF12D149BFF8BB4BBF029F4DBF66
:104CB000207A4FBF3D4D51BF491853BF31DB54BF20
:104CC000E59556BF534858BF6AF259BF1A945BBF67
:104CD000532D5DBF05BE5EBF214660BF97C561BF56
:104CE0005A3C63BF59AA64BF880F66BFD86B67BFC1
:104CF0003CBF68BFA7096ABF0C4B6BBF5E836CBF2C
:104D000093B26DBF9ED86EBF73F56FBF080971BFB8
:104D1000521372BF471473BFDD0B74BF0BFA74BF1D
:104D2000C6DE75BF07BA76BFC58B77BFF85378BFAD
:104D3000981279BF9DC779BF02737ABFBE147BBF3B
:104D4000CDAC7BBF283B7CBFC9BF7CBFAC3A7DBF2D
:104D5000CCAB7DBF23137EBFB0707EBF6DC47EBF62
:104D6000580E7FBF6D4E7FBFAB847FBF0FB17FBF3B
:104D700097D37FBF43EC7FBF11FB7FBF000080BF95
:104D800011FB7FBF43EC7FBF97D37FBF0FB17FBFC6
:104D9000AB847FBF6D4E7FBF580E7FBF6DC47EBF9B
:104DA000B0707EBF23137EBFCCAB7DBFAC3A7DBF5E
:104DB000C9BF7CBF283B7CBFCDAC7BBFBE147BBFD3
:104DC00002737ABF9DC779BF981279BFF85378BF35
:104DD000C58B77BF07BA76BFC6DE75BF0BFA74BF47
:104DE000DD0B74BF471473BF521372BF080971BF44
:104DF00073F56FBF9ED86EBF93B26DBF5E836CBFFD
:104E00000C4B6BBFA7096ABF3CBF68BFD86B67BFBD
:104E1000880F66BF59AA64BF5A3C63BF97C561BF7C
:104E2000214660BF05BE5EBF532D5DBF1A945BBFB8
:104E30006AF259BF534858BFE59556BF31DB54BF9E
:104E4000491853BF3D4D51BF207A4FBF029F4DBF00
:104E5000F8BB4BBF12D149BF65DE47BF03E445BF76
:104E600001E243BF70D841BF67C73FBFF9AE3DBF46
:104E70003B8F3BBF426839BF233A37BFF30435BF8E
:104E8000C9C832BFBB8530BFDE3B2EBF4AEB2BBF4C
:104E9000159429BF563627BF25D224BF996722BF54
:104EA000CBF61FBFD17F1DBFC6021BBFC07F18BF7F
:104EB000D9F615BF2A6813BFCDD310BFDA390EBF9C
:104EC0006B9A0BBF9BF508BF824B06BF3D9C03BF8F
:104ED000E4E700BF275DFCBECBE0F6BEEA5AF1BEB8
:104EE000BBCBEBBE7533E6BE4F92E0BE80E8DABEC8
:104EF0004136D5BECA7BCFBE53B9C9BE15EFC3BEBE
:104F0000491DBEBE2A44B8BEEF63B2BED47CACBE5F
:104F1000128FA6BEE59AA0BE86A09ABE32A094BE0D
:104F2000229A8EBE938E88BEC07D82BECCCF78BEC4
:104F30007F9A6CBE135C60BE011554BEC2C547BEED
:104F4000CF6E3BBEA2102FBEB5AB22BE834016BEB5
:104F500087CF09BE73B2FABD2FBCE1BD36BDC8BD57
:104F600080B6AFBD04A996BD752B7BBD2EFB48BD99
:104F70002BC316BDB10AC9BC920E49BC000000800B
:104F80004FBB610567ACDD3F182D4454FB21E93F61
:104F90009BF681D20B73EF3F182D4454FB21F93F50
:104FA000E2652F227F2B7A3C075C143326A6813CD6
:104FB000BDCBF07A8807703C075C143326A6913C81
:104FC000C4EB98999999C9BF711623FEC671BCBFED
:104FD0006D9A74AFF2B0B3BF9AFDDE522DDEADBF55
:104FE0002F6C6A2C44B4A2BF0D5555555555D53F6D
:104FF000FF8300922449C23F6E204CC5CD45B73F88
:10500000513DD0A0660DB13FEB0D76244B7BA93FFF
:1050100011DA22E33AAD903F0000000000000000EA
:10502000405000080000002094000000D83800081C
:10503000D450000894000020C4060000E83800089E
:10504000DF1500000000000000000000000000006C
:105050000000000000000000000000000000000050
:105060000000000000000000000000000000000040
:10507000000000000100000010000000000000001F
:105080000024F40000000000000000000000000008
:105090000000000000000000000000000000000010
:1050A0000000000000000000000000000000000000
:1050B00000000000000000000000000000000000F0
:1050C00000000000000000000000000000000000E0
:0450D00000000000DC
:040000050800018965
:00000001FF
